:020000040800F2
:1000000020040020010100086907000855030008CA
:10001000650700084D030008F50B0008000000000C
:100020000000000000000000000000005D0A000861
:1000300051030008000000005D0900085F0A000885
:100040001B0100081B0100081B0100081B01000820
:100050001B0100081B0100081B0100081B01000810
:100060001B0100081B0100081B0100081B01000800
:100070001B0100081B0100081B0100081B010008F0
:100080001B0100081B0100081B0100081B010008E0
:100090001B0100081B0100081B0100081B010008D0
:1000A0001B0100081B0100081B0100081B010008C0
:1000B000B50B0008D50B00081B0100081B01000848
:1000C0001B0100081B0100081B0100081B010008A0
:1000D0001B0100081B0100081B0100081B01000890
:1000E0001B0100081B0100081B010008DFF80CD0F1
:1000F00000F0ACF8004800475D0C00082004002028
:100100000648804706480047FEE7FEE7FEE7FEE7B1
:10011000FEE7FEE7FEE7FEE7FEE7FEE75D0B000811
:10012000ED000008D2B201E000F8012B491EFBD21D
:1001300070470022F6E710B513460A4604461946F2
:10014000FFF7F0FF204610BD80EA010210B502F073
:100150000043400022D04A001FD0010E01EB126183
:10016000C0F35600C2F3560240F4000042F400020D
:10017000A0FB022000047F39140400D0401C50EA88
:10018000124001D44000491EC2B20C0604EBD0104C
:10019000401C4008802A02D003E0002010BD20F05F
:1001A0000100002900DA0020184310BD9623002228
:1001B000114600F01DB820F00040C10DC0F316003C
:1001C00040F400007F2901DA00207047962903DC03
:1001D000C1F19601C84070479639884070470029A0
:1001E000A8BF7047401C490008BF20F001007047BD
:1001F00010B4B0FA80FC00FA0CF050EA010404BF1D
:1002000010BC704749B1CCF1200421FA04F411FA72
:100210000CF118BF012121430843A3EB0C01CB1DB6
:100220004FEA00614FEA102042BF002010BC704727
:1002300000EBC35010440029A4BF10BC7047401C01
:10024000490008BF20F0010010BC7047064C074D64
:1002500006E0E06840F0010394E807009847103496
:10026000AC42F6D3FFF746FF440D0008640D0008CA
:100270001D49896941F400711B4A91611B49096854
:1002800041F00201194A1160184924310968174ADE
:100290002432116015492C3109680143134A2C326C
:1002A00011601249096841F48001104A1160114639
:1002B000096841F4801111601146096841F4602118
:1002C00011601146096841F0010111601146096889
:1002D00041F00801116000BF0449096801F0040100
:1002E0000029F9D1704700000010024008240140A5
:1002F00030B5A0F58423C3F38722134B9B69941C6C
:100300000125A5402B43104CA36107290CDC036891
:100310008D000F24AC40A343036003688D000924C3
:10032000AC40234303600EE0A1F10803D9B2436857
:100330008D000F24AC40A343436043688D00092423
:10034000AC402343436030BD0010024000BFFEE7D5
:100350007047704700BFFEE708B50549896901434A
:10036000034A9161114689690140009100BF08BDAF
:10037000001002402DE9F04102460B461868C0F318
:100380000F2595FAA5F0B0FA80F47CE00120A0409A
:100390002840002876D0082C04D240F2011000FA40
:1003A00004F106E0A4F108004FF00116864046F083
:1003B0008061586802EB116691FAA1FCBCFA8CFCD2
:1003C0004FEA8C084FF00F0C0CFA08FC376827EA4C
:1003D0000C0791FAA1FCBCFA8CFC4FEA8C0C00FAD9
:1003E0000CFC47EA0C07376000BF1869D66826EA9C
:1003F00011260F0A97FAA7F7B7FA87F700FA07F757
:100400003E43D66000BF5868012802D058680928CA
:1004100038D1986802EB116691FAA1FCBCFA8CFC09
:100420004FEA8C084FF0030C0CFA08FC376827EAF7
:100430000C0791FAA1FCBCFA8CFC4FEA8C0C00FA78
:100440000CFC47EA0C07376000BFD86802EB116666
:1004500091FAA1FCBCFA8CFC4FEA8C084FF0040C1A
:100460000CFA08FC376827EA0C0791FAA1FCBCFAE1
:100470008CFC4FEA8C0C00FA0CFC47EA0C07376046
:1004800000BF00BF641C25FA04F000287FF47EAF93
:10049000BDE8F0814FF47A71B0FBF1F2521E4FF0DB
:1004A000E0235A6100229A6105221A6100BF704759
:1004B00010B5044600F088FA2060206800F050FA79
:1004C0006060606800F05CFAA060606800F06AFA42
:1004D000E06010BD0149086070470000180000206E
:1004E0002DE9FF4104460D4601270026204600F075
:1004F00041F8002833D1E96868680843296908434E
:10050000E16841F20C6291430843E060A868216908
:1005100021F440510143216100BF6869616921F400
:1005200040710143616100BF6846FFF7C1FF0E489B
:10053000844201D1039E08E00C48844201D1029E0E
:1005400003E00B48844200D1029E46B1286830B1D6
:100550000027314620462A6800F011F800BF3846CF
:1005600004B0BDE8F08100000038014000440040C4
:10057000004800400146C868C0F34030704770B57D
:1005800001EBC10303EB01139400B3FBF4F301EBA4
:10059000C10404EB01149500B4FBF5F46425B4FB2D
:1005A000F5F404EBC40505EB0414A3EB8403322437
:1005B00004EB03136424B3FBF4F303F0F00301EB47
:1005C000C10404EB01149500B4FBF5F46425B4FBFD
:1005D000F5F403EB041401EBC10303EB01139500E5
:1005E000B3FBF5F301EBC10505EB01159600B5FB77
:1005F000F6F56426B5FBF6F505EBC50606EB051525
:10060000A3EB8503322505EB03136425B3FBF5F358
:1006100003F00F0323449BB2836070BD0168C96877
:10062000037901229A4051400268D160704700006E
:1006300000B585B014216846FFF77BFD1020FFF759
:100640008BFE2020FFF788FE0420FFF785FE0820A0
:10065000FFF782FE42F22000010A0D4A516100BFFD
:100660000C4800900420019069460B48FFF782FE79
:1006700042F2200000900120019002200290002010
:10068000039069460248FFF775FE05B000BD000003
:1006900000080140200020040010014000B58DB08A
:1006A0001C2106A8FFF745FD142101A8FFF741FD15
:1006B0004FF400302849C9690143274AD1611146E6
:1006C000C9690140009100BF00BF0420114689693B
:1006D00001439161114689690140009100BF00BF4B
:1006E00040F2044001900920029002200390002073
:1006F000049001A91948FFF73DFE40F6080001905B
:100700000920029001A91548FFF734FE4FF4E130AB
:10071000069000200790089009900C200A90002075
:100720000B900C9006A90E48FFF7DAFE00BF0C48AC
:10073000006920F490400A4908610846406920F0A9
:100740002A00486100BF00BF0846C06840F400505E
:10075000C86000BF0DB000BD00100240000801409D
:100760000044004000BFFEE7704700002DE9F0475D
:1007700004460D4616461F46DDF820806248844236
:1007800009D162A000F038FA6248806940F4006044
:100790006049886125E0B4F1804F09D15EA000F086
:1007A0002BFA5C48C06940F001005A49C86118E062
:1007B0005B48844209D15BA000F01EFA5548C0692D
:1007C00040F002005349C8610BE05848844208D108
:1007D00057A000F011FA4F48C06940F004004D499D
:1007E000C861781EB6FBF0F0E062E06AB0F5803FC9
:1007F00009D9E06A50490968B0FBF1F0E0624E485F
:100800000068401EA062012D1BD14CA000F0F4F93D
:10081000206A40F001002062A06920F01000A06171
:10082000A06940F06000A061E16A481CFFF7BEFCCF
:1008300082464146FFF788FC8146FFF7BCFC6063B7
:1008400058E0022D1BD13FA000F0D6F9206A40F0FD
:1008500010002062A06920F48050A061A06940F4DB
:10086000C040A061E16A481CFFF7A0FC82464146F7
:10087000FFF76AFC8146FFF79EFCA0633AE0032D78
:100880001BD132A000F0B8F9206A40F480702062D9
:10089000E06920F01000E061E06940F06000E06194
:1008A000E16A481CFFF782FC82464146FFF74CFC98
:1008B0008146FFF780FCE0631CE0042D1AD125A0DF
:1008C00000F09AF9206A40F480502062E06920F438
:1008D0008050E061E06940F4C040E061E16A481C9A
:1008E000FFF764FC82464146FFF72EFC8146FFF786
:1008F00062FC2064606C40F400406064206840F05A
:1009000001002060BDE8F087002C014054494D31C2
:10091000000000000010024054494D320000000069
:100920000004004054494D3300000000000800401E
:1009300054494D34000000001000002063616E61D6
:100940006C31000063616E616C32000063616E6146
:100950006C33000063616E616C340000704700000E
:10096000014600BF0448406800F0F0000009034A57
:10097000125C21FA02F07047001002402C0D0008B2
:10098000014600BF0548406800F4E060044A02EBFD
:100990001020027821FA02F0704700000010024097
:1009A0003C0D0008014600BF0548406800F4605057
:1009B000044A02EBD020027821FA02F070470000CE
:1009C000001002403C0D000810B5002400BF0B4889
:1009D000406800F00C0020B1042804D0082808D199
:1009E00003E0074C07E0064C05E000F00BF8044676
:1009F00001E0034C00BF00BF204610BD00100240C4
:100A000000127A000021002200BF1148406800F463
:100A1000803002461AB1B2F5803F0CD101E00D4999
:100A20000BE000BF0A484068C0F34040401C0A4B3E
:100A3000B3FBF0F101E0074900BF00BF00BF04486D
:100A4000406800F47010022303EB90404843704765
:100A50000010024000093D0000127A007047704704
:100A600010B500203A49096821F007010143384ACE
:100A7000116000BF00BF1046006800F0070008B119
:100A8000FFF767FC10203349096821F0F80141EABB
:100A9000C001304A116000BF00BF1046006840F03E
:100AA00001001146086000BF00BF00BF2948006870
:100AB000C0F340000028F8D000204FF40021254A60
:100AC000526822F47C120A43224B5A6000BF00BFD6
:100AD0001846006840F080701946086000BF00BFEB
:100AE00000BF1C480068C0F340600028F8D0002018
:100AF0001849496821F0F0010143164A516000BFCE
:100B000010151146496821F4E0610143516000BFAE
:100B100000201146496821F460510143516000BF33
:100B200002201146496821F003010143516000BFD2
:100B300000BF00BF0748406800F00C000828F8D14B
:100B40000548FFF7A7FC0448FFF7C4FC10BD0000F0
:100B500000200240001002400024F4001148006808
:100B600040F001000F490860084640680E490840FF
:100B70000C494860084600680C490840094908606B
:100B80000846006820F4802008600846406820F489
:100B9000FE0048604FF41F008860C80304490860E5
:100BA00070470000001002400000FFF8FFFFF6FE53
:100BB00008ED00E010B54FF08040006920F0010022
:100BC0004FF0804108610248FFF728FD10BD00008A
:100BD0000000002010B50548006820F0010003491E
:100BE00008600348FFF71AFD10BD00001004004024
:100BF0000800002000BFFEE7014A024900F013B8D8
:100C0000490C00081C00002002E008C8121F08C19F
:100C1000002AFAD170477047002001E001C1121F7D
:100C2000002AFBD170472DE9F04116460F460446D5
:100C3000002503E03946B047641C6D1C207800286D
:100C4000F8D12846BDE8F08138B504468DF800009B
:100C500069460320ABBE204638BD000008B501211F
:100C60002A48FFF745FB00204FF4FA73284A012178
:100C700000902848FFF77AFD0B20FFF7F9FA0120D2
:100C8000254989690143244A9161114689690140D6
:100C9000009100BF00BF00071146C9690143D1613F
:100CA0001146C9690140009100BF00BF0320024600
:100CB0001A4B19684FF6FF031940194B0B4343EACF
:100CC0000221164B196000BF00BF1648406820F093
:100CD000E060144948600846406840F00070486091
:100CE00000BFFFF7BDFEFFF7A3FCFFF7D7FC0CE04A
:100CF00000BF0D48006800F002000028F9D00A4843
:100D00004C300068034934310860F1E700080140C5
:100D10000024F400002C0140001002400CED00E023
:100D20000000FA050000014000240140000000001E
:100D3000000000000102030406070809000000008B
:100D400001020304640D00080000002020000000E0
:100D5000080C0008840D000820000020000400009A
:100D6000180C000800000000000000000000000057
:100D700000000000E8030000000000000024F40070
:040D8000000000006F
:04000005080000ED02
:00000001FF
